:100000000C94A1000C94C9000C94C9000C94020C2F
:100010000C94020C0C94020C0C94C9000C94C900B2
:100020000C94C9000C94C9000C94C9000C94C9002C
:100030000C94C9000C94C9000C94C9000C94C9001C
:100040000C948C0D0C94C9000C9465100C949710B2
:100050000C94C9000C94C9000C94C9000C94C900FC
:100060000C94C9000C94C900B304C804D704E60476
:10007000EE04F60406050F053A083A084808600839
:100080005308690872087F089708C2080800000032
:10009000BE922449123EABAAAA2ABECDCCCC4C3E7D
:1000A00000000080BEABAAAAAA3E00000000BF006C
:1000B0000000803F0000000000084178D3BB438768
:1000C000D1133D190E3CC3BD4282AD2B3E68EC827C
:1000D00076BED98FE1A93E4C80EFFFBE01C4FF7F01
:1000E0003F000000000000000008000201000003C3
:1000F00004070000000000000000010204081020B6
:1001000040800102040810200102040810200404A9
:1001100004040404040402020202020203030303AF
:100120000303000000002300260029000000000057
:10013000250028002B0000000000240027002A00D2
:10014000C71011241FBECFEFD8E0DEBFCDBF12E035
:10015000A0E0B1E0ECEEF8E202C005900D92A4320E
:10016000B107D9F724E0A4E2B2E001C01D92AF3A92
:10017000B207E1F711E0C2E4D1E004C02297FE012A
:100180000E944D14C034D107C9F70E940B110C9482
:1001900074140C940000CF93409100015091010120
:1001A000BA0163707727C0E020E030E0E5E0660F39
:1001B000771FEA95E1F7AC2FB0E0FC010190002039
:1001C000E9F73197E81BF90BAE17BF0788F4A80FC2
:1001D000B91FAC91E0EEEA0FEF3540F4FB01E20FFE
:1001E000F31FE75DFD4FA0832F5F3F4FCF5FE3CF4E
:1001F000FA01E370FF2785E0EE0FFF1F8A95E1F714
:10020000E20FF31FE75DFD4F10824F5F5F4F50938A
:10021000010140930001CF910895E0912402F091F3
:100220002502CF0101962091000130910101821732
:10023000930728F490932502809324020AC0E37068
:10024000FF27B5E0EE0FFF1FBA95E1F7E75DFD4F21
:100250001082109228020895809124029091250224
:1002600020910001309101018217930719F140910B
:1002700028028370992725E0880F991F2A95E1F7B6
:10028000DC01A75DBD4FFD0101900020E9F731972A
:10029000EA1BFB0B242F30E02E173F0758F44F5F6B
:1002A00040932802FC01E20FF31FE75DFD4F8081C0
:1002B0008F77089580E008951F93CF93DF930E9476
:1002C0002C01182FC82FDD27C7FDD095DC2FCC2798
:1002D0000E942C01282F220F330BC22BD32B2091ED
:1002E000260230912702A9014F5F5F4F50932702EA
:1002F000409326023327269537952227C22BD32BEE
:10030000112311F0811102C00E940D01CE01DF9175
:10031000CF911F910895AF92BF92CF92DF92EF924B
:10032000FF920F931F93CF93DF93EC018B01F42E79
:10033000FB01608121E0462F0E94CE0CFF8E19A2A6
:1003400018A21AA21BA21CA21DA21EA2F801808143
:10035000918198A78FA354E0A52EB12CC12C60EEFB
:10036000D62E62E9E62E65E4F62E00E010E42CE1DC
:1003700036E440E050E463E575E4CE0189960E94DE
:100380005A0A77E0A72EB12C00E010E42CE136E405
:1003900040E050EB66E575E4CE01C7960E945A0A2C
:1003A000FE01EB5BFF4F1082319682E28083319633
:1003B0008BE18083319684EE8083319685E480835F
:1003C000319686EC808331968EE790E0918380832E
:1003D000329680E190E091838083329680E398E0CA
:1003E00091838083329680E192E09183808332967C
:1003F00080E092E09183808332968FE095E0918354
:100400008083329680E091E091838083329680E011
:1004100096E091838083329623E031EF318320830D
:10042000329620E038E031832083329691838083B6
:10043000329680E191E091838083329680E093E070
:100440009183808332968FE093E09183808332960C
:1004500080E498E091838083329680E097E09183F6
:100460008083329680E197E091838083329680E2A8
:1004700097E091838083329680E094E0918380833B
:10048000329680E194E091838083329680E298E016
:1004900091838083329680E098E1918380833296C5
:1004A00080E099E091838083329680E199E09183A6
:1004B0008083329680E091EE9183808332968EE045
:1004C0008083319682E0808331968083319684E008
:1004D0008083319688E0808340E051EE60E070E0F8
:1004E000CE01DF91CF911F910F91FF90EF90DF90A0
:1004F000CF90BF90AF900C94FE0C1F93CF93DF93DF
:10050000EC01162F6E3729F46DE70E94300B6EE573
:1005100006C06D3721F46DE70E94300B6DE5CE010A
:100520000E94300B88A199A1810F911D890F90E045
:1005300099A388A3DF91CF911F910895CF93DF9363
:10054000EC0168A160950E94300B19A218A2DF91FE
:10055000CF910895DF92EF92FF920F931F93CF9365
:10056000DF9300D000D000D0CDB7DEB77C01D62E0F
:100570005A8349830B831C832D833E8361E0FC01F6
:1005800087A10E94B10E6D2DC7010E947D02698175
:10059000C7010E947D026A81C7010E947D026B81B2
:1005A000C7010E947D026C81C7010E947D026D819E
:1005B000C7010E947D026E81C7010E947D02C701B2
:1005C0000E949E02C7010E94B40B60E0F70187A160
:1005D0000E94B10E60E0F701878D0E94EA0E269618
:1005E0000FB6F894DEBF0FBECDBFDF91CF911F9144
:1005F0000F91FF90EF90DF9008952F923F924F92CE
:100600005F926F927F928F929F92AF92BF92CF92A2
:10061000DF92EF92FF920F931F93CF93DF93CDB7AB
:10062000DEB762970FB6F894DEBF0FBECDBF9A8BD0
:10063000898B6B01442E855B9F4F9A8389838989BF
:100640009A898B5B9F4F9C838B83E989FA89EA5B4C
:10065000FF4FFE83ED8389899A89895B9F4F988735
:100660008F83E989FA89E85BFF4FFA87E9878989EF
:100670009A89875B9F4F9C878B87E989FA89EF5717
:10068000FF4FFE87ED8789899A89835B9F4F7C01A5
:10069000E989FA89E959FF4FF88BEF8729883A8869
:1006A000FDE62F0E311C69887A8839E6630E711CCD
:1006B000A988BA888BE6A80EB11C89889A8899E522
:1006C000890E911C89899A890E949C0B892B09F4B7
:1006D000C0C189899A890E940F0B582EE989FA892D
:1006E00022A130E0E981FA818081918128173907C0
:1006F00009F0ABC1442031F061E0E989FA89878DC6
:100700000E94EA0EEB81FC818081581229C0E989A0
:10071000FA8984A18F5F84A3E258FF4F60810E9411
:10072000D613992399F0913009F08FC1F60124A1D5
:1007300035A146A157A1A4E6B0E00E9451148B0157
:100740009C01E989FA89E95AFF4F77C1F60100A5B2
:1007500011A522A533A5E989FA89EF59FF4F6DC18B
:10076000ED81FE818081581225C0E989FA8985A131
:100770008F5F85A3E158FF4F60810E94D6139923B4
:1007800079F0913009F061C1F601058116812227C7
:1007900017FD2095322FE989FA89ED5AFF4F4DC197
:1007A000F6010381148120E030E0E989FA89EF5AEB
:1007B000FF4F43C1EF81F88580815812A4C0E989B9
:1007C000FA8983A18F5F83A3E058FF4F60810E9465
:1007D000D613913049F1C0F0923009F45BC09330E8
:1007E00009F033C1F60162897389848995892AE009
:1007F00030E040E050E00E942C1489019A01E98920
:10080000FA89ED58FF4F19C1F601248D358D468DBB
:10081000578DA4E2B0E00E9451148B019C01E9893C
:10082000FA89E15BFF4F09C1F6014685578560896A
:100830007189CA0177FF17C057FF04C0882799271D
:10084000841B950B64E670E00E94F61326E0269F59
:10085000C001279F900D11248C01222717FD2095A0
:10086000322F306C4BC057FF04C088279927841B58
:10087000950B64E670E00E94F61326E0269FC00107
:10088000279F900D11248C01222717FD2095322FD0
:10089000306834C0F6014285538564857585CA0188
:1008A00077FF17C057FF04C088279927841B950B33
:1008B00064E670E00E94F61326E0269FC001279FA1
:1008C000900D11248C01222717FD2095322F3064C2
:1008D00015C057FF04C088279927841B950B64E631
:1008E00070E00E94F61326E0269FC001279F900D1E
:1008F00011248C01222717FD2095322FE989FA89CE
:10090000E35AFF4F9AC0E985FA85808158120AC0E0
:100910000E945C018C0120E030E0E989FA89EB5A01
:10092000FF4F8BC0EB85FC858081581639F0E98933
:10093000FA89E65BFF4F8081581287C0E989FA89FE
:1009400086A18F5F86A3ED85FE8560810E94D61308
:10095000892F90E08830910508F077C0FC01EC5CAD
:10096000FF4F0C944B14F601028D138D16950795CD
:10097000169507950A3F110514F009EF10E022279C
:1009800017FD2095322FE989FA89E55AFF4F55C0A6
:1009900089899A8989960E947A0A8C01222717FDF3
:1009A0002095322FE989FA89E159FF4F46C089899C
:1009B0009A89C7960E947A0A8C01222717FD2095F2
:1009C000322FE989FA89EF58FF4F37C0F60181814C
:1009D00092818C0120E030E0F4012FC0F60100810B
:1009E000007810E020E030E0F50127C0F601218515
:1009F000808590E0FAE02F9F800D911D11248C01DD
:100A0000222717FD2095322FF30117C0F601078129
:100A1000112707FD1095212F312FF1010EC0F6018E
:100A200020A131A144E6429FC001439F900D1124B3
:100A30008C0120E030E0EF85F88940815181F70199
:100A4000608189899A890E94AA02E989FA8952A259
:100A500039CE62960FB6F894DEBF0FBECDBFDF91E0
:100A6000CF911F910F91FF90EF90DF90CF90BF90AB
:100A7000AF909F908F907F906F905F904F903F903E
:100A80002F900895CF93DF93CDB7DEB7CF51D340EA
:100A90000FB6F894DEBF0FBECDBF8CE090E09A8316
:100AA00089834DE0BE016F5F7F4FCE0183569D4F1E
:100AB0000E948B01CE0101960E94090626E040E0CB
:100AC00051EE60E070E082E194E00E94031061E08A
:100AD0008DE00E94B10E81E00E94680E0DE41FE0DF
:100AE000CE0101960E94B707CE0101960E94AE0783
:100AF000482FCE010196C15EDC4F4883CF51D340D1
:100B00000E945906BC01C15EDC4F4881CF51D340E1
:100B1000CE0183569D4F0E94FD020115110501F380
:100B20000E944D0FDDCF0895FB019081982780E151
:100B3000989F900111242927822F90E0382F222797
:100B4000AC0163E0440F551F6A95E1F72427352770
:100B5000418150E02427352774E0959587957A9553
:100B6000E1F728273927318320830895CF92DF9238
:100B7000EF92FF920F931F93CF93DF9300D0CDB7E7
:100B8000DEB78C018EEFF801828386E083838FEFDE
:100B900085838EEB86838091B00284838F5F809300
:100BA000B0028FEF9FEF9A8389837801F3E0EF0E15
:100BB000F11C68018EE0C80ED11CBE016F5F7F4F33
:100BC000EC14FD0431F0F70181917F010E9494053E
:100BD000F4CF84E90E949405C801089639812A81DE
:100BE000F8014381FC01E40FF11D3083F8013381EA
:100BF000FC01E30FF11D21838EE090E00F900F9038
:100C0000DF91CF911F910F91FF90EF90DF90CF90E8
:100C10000895CF93DF93EC0181E090E0998388837E
:100C20008AE090E09B838A838C83FE01359687E679
:100C3000DF011D928A95E9F7E959FF4F108231963D
:100C400087E091E0DF019C011D9221503040E1F7E7
:100C5000E95FFE4F80E191E0DF019C011D92215090
:100C60003040E1F7E05FFE4F8CE0DF011D928A9596
:100C7000E9F73C961182108232968DE090E09183E4
:100C80008083329610821182128213820E94D60DC6
:100C9000C856DD4F688379838A839B8326E040E0D2
:100CA00051EE60E070E082E194E0DF91CF910C942E
:100CB0000310059608952F923F924F925F926F9284
:100CC0007F928F929F92AF92BF92CF92DF92EF92DC
:100CD000FF920F931F93CF93DF9300D000D000D0EB
:100CE000CDB7DEB79E838D830E94D60D0D811E8108
:100CF00008561D4FD801CD90DD90ED90FC906C19F9
:100D00007D098E099F096D3D75408105910508F4A7
:100D1000EEC00E94D60DF8016083718382839383B5
:100D2000ED81FE81E459FF4F80818111E0C061E0D7
:100D30002D813E812E563D4FD9018C912B833C83D2
:100D40000E94EA0EED81FE814081828193815F01E4
:100D5000F4E8AF1AFEEFBF0AD5018D939C9355249A
:100D60005394CD80DE80B2E8CB1ABEEFDB0AF601E9
:100D700050826D807E80F1E86F1AFEEF7F0AD3010A
:100D80005C9282E02D803E80B0E82B1ABEEF3B0AD9
:100D9000F10180838D819E818F579E4F9A83898335
:100DA000DC014C93E2E44E2E0D811E810C581E4F47
:100DB000F8014782C8010E94B6054801F2E08F0E93
:100DC000911CD80113964C9150E0485F5F4FB401DD
:100DD000ED80FE80BDE6EB0EF11CC7010E946B1496
:100DE000E0911204F0911304D80113964C9150E055
:100DF000485F5F4F0280F381E02DB70182E194E00C
:100E000009956AE070E080E090E00E94050EED81B7
:100E1000FE81408182819381D5018D939C93F6015F
:100E20005082D3015C928BE0F1018083A981BA8169
:100E30004C93F8014782C8010E94B605D801139669
:100E40004C9150E0485F5F4FB401C7010E946B14A2
:100E5000E0911204F0911304D80113964C9150E0E4
:100E6000485F5F4F0280F381E02DB70182E194E09B
:100E700009956AE070E080E090E00E94050EED8147
:100E8000FE81408182819381D5018D939C93F601EF
:100E90005082D3015C92F1015082A981BA814C93B6
:100EA000F8014782C8010E94B605D80113964C91FB
:100EB00050E0485F5F4FB401C7010E946B14E0919E
:100EC0001204F0911304D80113964C9150E0485F3E
:100ED0005F4F0280F381E02DB70182E194E0099534
:100EE00060E02B813C81F90180810E94EA0E0E9422
:100EF000D60DED81FE81EC56FD4F008111812281DE
:100F00003381601B710B820B930B6D3D7540810526
:100F1000910558F0ED81FE81E459FF4F1082ED817B
:100F2000FE81E057FD4F1182108226960FB6F8948D
:100F3000DEBF0FBECDBFDF91CF911F910F91FF900C
:100F4000EF90DF90CF90BF90AF909F908F907F9069
:100F50006F905F904F903F902F900895FC01E4595F
:100F6000FF4F81E09081911101C080E008952F92A0
:100F70003F924F925F926F927F928F929F92AF9229
:100F8000BF92CF92DF92EF92FF920F931F93CF9376
:100F9000DF93CDB7DEB761970FB6F894DEBF0FBE13
:100FA000CDBF998B888B0E945B06C888D9888CE856
:100FB000C81A8EEFD80A088919890C571D4FE8897D
:100FC000F989E558FE4FFA83E9838889998988561B
:100FD0009E4F9C838B83E889F989E756FE4FFE83F9
:100FE000ED838889998980579E4F98878F83A88839
:100FF000B9889CE7A91A9EEFB90A88889988E8E71A
:101000008E1AEEEF9E0AE888F988F4E7EF1AFEEFF1
:10101000FF0A888999898C569E4F9A878987E88923
:10102000F989E058FE4FFC87EB87888999898257B8
:101030009E4F9E878D87360198E0690E711C82E174
:1010400094E00E94200F892B09F41BC282E194E0F6
:101050000E94390F2C01482F1092A902E091AC0296
:10106000F091AD02EA30F10508F0C7C0E45CFF4F33
:101070000C944B148E3F09F0C0C082E090E0909336
:10108000AD028093AC021092B8024092B70296C0B3
:101090008093B8021092AE0265EB72E00E94940554
:1010A00084E090E008C08093B90265EB72E00E9492
:1010B000940583E090E09093AD028093AC029DC0D4
:1010C0008093BA0265EB72E00E94940585E090E09F
:1010D000F2CF8093BB0265EB72E00E94940586E03C
:1010E00090E0E9CF8093BC0265EB72E00E9494052A
:1010F0008091B8028823C1F087E090E0DCCFE091D6
:10110000AE0281E08E0F8093AE02F0E0E354FD4F1B
:10111000408265EB72E0842D0E9494059091AE02AE
:101120008091B802981369C088E090E0C4CFE09144
:10113000BC02F0E0ED5FFE4F65EB72E080814F8610
:101140000E9494058091B5029091B6029927920170
:1011500033274F852817390741F08091AB028F5F05
:101160008093AB021092A90219C089E090E090939D
:10117000AD028093AC02E091AE02F0E0E354FD4F8B
:1011800040823BC02090B602312C992782159305EE
:10119000E1F08091AB028F5F8093AB0281E090E041
:1011A0009093AD028093AC024E3F39F582E090E01F
:1011B0009093AD028093AC021092B8028FEF9FEF34
:1011C0009093B6028093B50218C081E08093A90283
:1011D00081E090E09093AD028093AC02E091AE028A
:1011E000F0E0E254FD4F408280E191E0E5EBF2E077
:1011F000D60101900D920197E1F72091A9022130CB
:1012000099F48091B9028093AF028091B1029091DC
:10121000B202009721F41092B4021092B302019628
:101220009093B2028093B1028091AF028F5FF80178
:1012300086838091B1029091B202918780878091DC
:10124000AB0290E0938782871092AB02222309F4CD
:10125000F6CEE981FA818081883109F479C028F5D8
:101260008823C1F1813009F0EACEE889F989E6578F
:10127000FE4F808191812AE030E0B9010E94E213A3
:10128000E889F98971876087F70180819181B901C7
:101290000E94F613E889F98973876287E656FE4F44
:1012A0008081E889F9898487CACE8A3409F4ABC081
:1012B0008D3F09F0C4CE83E3F301A889B989D9969B
:1012C00001900D928A95E1F788899989CA960E94C2
:1012D000CB00B5CEE889F989E758FE4F5080F1E0A0
:1012E0005F12ADCEE889F989EE57FE4F8081E8891B
:1012F000F9898583E458FE4F80819181E889F989D5
:10130000978386830E94D60DE889F989EC56FD4FB4
:101310006083718382839383E889F989E057FD4F65
:10132000808191810196918380830B9708F487CE09
:10133000A889B989A459BF4F5C921182108261E0DB
:10134000E889F989EE56FD4F80810E94EA0E77CE3A
:10135000EB81FC818081E889F9898587ED81FE81B7
:101360009081E889F98996878330B1F5EF81F88516
:1013700080819181E889F98990A3878FF501808127
:101380009181A281B381E889F9898787908BA18BAC
:10139000B28BF40180819181A281B381E889F989BE
:1013A000838B948BA58BB68BF70180819181A28171
:1013B000B381E889F989878B908FA18FB28FE985F6
:1013C000FA8580819181A0E0B0E0E889F989838F76
:1013D000948FA58FB68F33CE8FE097E2E889F98995
:1013E00090A3878F1786108A118A128A138A148A0B
:1013F000158A168A178A108E118E128E138E148EED
:10140000158E168E1CCEEB85FC85608171818281E4
:1014100093810E941912E889F98961A372A383A3B9
:1014200094A3F70180819181E889F98996A385A326
:10143000ED85FE8580819181E889F98990A787A350
:10144000F50160817181828193810E941412E88983
:10145000F98961A772A783A794A720E030E048EC40
:1014600052E4F40160817181828193810E94401372
:101470000E941412E889F98965A776A787A790AB1F
:10148000DECD61960FB6F894DEBF0FBECDBFDF9103
:10149000CF911F910F91FF90EF90DF90CF90BF9071
:1014A000AF909F908F907F906F905F904F903F9004
:1014B0002F900895AF92BF92CF92DF92EF92FF925A
:1014C0000F931F93FC0140835183628373830483D2
:1014D000158326833783C086D186E286F386B58658
:1014E000A4861F910F91FF90EF90DF90CF90BF9057
:1014F000AF9008958F929F92AF92BF92CF92DF925A
:10150000EF92FF920F931F93CF93DF93EC018C85A3
:101510000E946B0E8C01009709F467C0C884D984BF
:10152000EA84FB8420E030E040E854E4C701B601DF
:101530000E9440134B015C01B801882777FD80951C
:10154000982F0E9447129B01AC01C501B4010E9473
:10155000AC11A70196010E9443112C813D814E815F
:101560005F810E94AC110E940013288139814A8159
:101570005B810E94AC112FE03FEC4BE55BE30E94E6
:1015800044119B01AC0160E070E080E89FE30E94A1
:10159000AC1123E333E948E853E40E9443116B01A3
:1015A0007C0120E030E0A9010E94F71218164CF4EB
:1015B00020E030E040E05FE3C701B6010E94441143
:1015C00011C020E030E0A901C701B6010E94A811B6
:1015D00087FF13C020E030E040E05FE3C701B601C1
:1015E0000E9443116B017C0108C083E3C82E83E98C
:1015F000D82E88E8E82E83E4F82EC701B6010E94B1
:101600001412CB01DF91CF911F910F91FF90EF90BA
:10161000DF90CF90BF90AF909F908F9008952091D2
:1016200007043091080428173907B9F49091C503CD
:101630008091C603981789F0E091C503F0E0E95363
:10164000FC4F80812091C50330E02F5F3F4F2F7307
:1016500033272093C50390E008958FEF9FEF0895FF
:101660001F93CF93DF93DC015C968D919C915D97E6
:10167000009749F481E090E013969C938E93129723
:1016800080E090E03BC05196ED91FC9152975096CE
:101690002C915097322F30951FB75E964C915E97E4
:1016A00041FB772770F941FD6095F89440817723DD
:1016B00011F0422B01C043234083EC012197F1F745
:1016C00048E0508160FF02C0522B01C05323508379
:1016D000EC012197F1F76695415099F780817723C6
:1016E00011F0832301C0822B80831FBF5C968D91F4
:1016F0009C915D970197F1F781E090E0DF91CF91A8
:101700001F91089520910704309108042817390784
:1017100081F49091C5038091C603981751F0E09130
:10172000C503F0E0E953FC4F8081992787FD909530
:1017300008958FEF9FEF08952091070430910804DA
:101740002817390771F48091C6032091C50390E0F2
:10175000805C9F4F821B910960E470E00E94F61349
:10176000089580E090E008952091070430910804E6
:101770002817390739F48FB7F8941092C6031092DE
:10178000C5038FBF0895E0910704F0910804E8179E
:10179000F90769F4A389B4899C9185898095892387
:1017A0008C93109208041092070481E0089580E061
:1017B0000895CF93DF93EC018A8D9B8D892BF1F0F7
:1017C00080910704909108048C179D07B9F0009749
:1017D00011F00E94C30B8E8D8E7F8E8F1092C603E8
:1017E0001092C503D0930804C0930704EB89FC89C9
:1017F00080819D89892B808381E001C080E0DF9119
:10180000CF9108951F920F920FB60F9211242F932C
:101810003F934F935F936F937F938F939F93AF9378
:10182000BF93EF93FF93E0910704F0910804309782
:1018300009F451C0868DA685B785958581FF04C0C2
:101840008C91892329F447C08C91892309F043C0E6
:10185000A389B4899C918589809589238C938689F5
:1018600097890197F1F7208D318DA685B78575850C
:1018700058E040E0C9010197F1F7842F90E0959579
:101880008795482F6C91672309F04068515091F774
:10189000868D81FD40958091C60390E001968F73FF
:1018A00099272091C503281749F0A091C603B0E0FD
:1018B000A953BC4F4C938093C60303C0868D8160AF
:1018C000868F828D938D0197F1F7A389B4898C91CE
:1018D0009589892B8C93FF91EF91BF91AF919F9147
:1018E0008F917F916F915F914F913F912F910F90C9
:1018F0000FBE0F901F9018951F93CF93DF93EC01AD
:10190000162F6E8D6695617081E06827812F0E9489
:10191000EA0E61E0812F0E94B10E812F90E0FC0160
:10192000E650FF4FE491E88BFC01E25FFE4FE4914B
:10193000F0E0EE0FFF1FE45DFE4F859194919A8BCE
:10194000898BDF91CF911F9108951F93CF93DF93E0
:10195000EC01162F60E0812F0E94B10E8E8D81FD6B
:1019600004C061E0812F0E94EA0E1C87812F90E065
:10197000FC01E650FF4FE491ED87FC01E25FFE4F72
:10198000E491F0E0EE0FFF1FEE5DFE4F8591949124
:101990009F878E87DF91CF911F910895FF920F93BC
:1019A0001F93CF93DF93EC01F62E522F1B821A82E6
:1019B00008EE13E020E030E00C831D832E833F838C
:1019C00087E092E0998388831F8A1E8A198E188E79
:1019D0001B8E1A8E1D8E1C8E8E8D8E7F50FB81F974
:1019E0008E8F642FCE010E947C0C6F2DCE01DF9173
:1019F000CF911F910F91FF900C94A50CCF93DF9383
:101A0000EC019A01AB011B8E1A8E198E188E1F8A5B
:101A10001E8A60E079E08DE390E00E942C14C901F9
:101A20002430310520F0B9016350710902C061E032
:101A300070E07D8F6C8FEC85E63108F068C0B901ED
:101A4000769567956431710518F06351710902C08C
:101A500061E070E07F8B6E8B069718F0C9010597E7
:101A600002C081E090E0998F888FC901880F991F8B
:101A7000820F931F96958795969587958D30910542
:101A800010F00C9702C081E090E09B8F8A8F20912C
:101A90006800E83050F091E0EE3008F490E081E02A
:101AA00001C0880F9A95EAF701C084E0822B8093E9
:101AB00068002C85283038F02E3040F0263148F46C
:101AC0008CE690E008C08DE690E005C08BE690E0E3
:101AD00002C080E090E09C8B8B8B283030F481E05A
:101AE00001C0880F2A95EAF70DC0822F90E02E30B2
:101AF00010F4089701C00E9791E001C0990F8A95E4
:101B0000EAF7892F8D8B8C8D9D8D0197F1F7CE0192
:101B1000DF91CF910C94D90B1F920F920FB60F92B9
:101B200011242F933F938F939F93AF93BF938091F3
:101B30000A0490910B04A0910C04B0910D04309113
:101B4000090423E0230F2D3720F40196A11DB11DB8
:101B500005C026E8230F0296A11DB11D209309049C
:101B600080930A0490930B04A0930C04B0930D048B
:101B700080910E0490910F04A0911004B091110473
:101B80000196A11DB11D80930E0490930F04A093A4
:101B90001004B0931104BF91AF919F918F913F9129
:101BA0002F910F900FBE0F901F9018952FB7F8949C
:101BB00060910A0470910B0480910C0490910D04C3
:101BC0002FBF08953FB7F89480910E0490910F04B1
:101BD000A0911004B091110426B5A89B05C02F3F19
:101BE00019F00196A11DB11D3FBF6627782F892FDF
:101BF0009A2F620F711D811D911D42E0660F771FA4
:101C0000881F991F4A95D1F70895CF92DF92EF92DE
:101C1000FF92CF93DF936B017C010E94E20DEB01F9
:101C2000C114D104E104F10489F00E9442110E9420
:101C3000E20D6C1B7D0B683E734090F381E0C81A87
:101C4000D108E108F108C851DC4FEACFDF91CF910C
:101C5000FF90EF90DF90CF900895789484B58260E4
:101C600084BD84B5816084BD85B5826085BD85B540
:101C7000816085BDEEE6F0E0808181608083E1E8EF
:101C8000F0E0108280818260808380818160808327
:101C9000E0E8F0E0808181608083E1EBF0E080812A
:101CA00084608083E0EBF0E0808181608083EAE7FC
:101CB000F0E0808184608083808182608083808185
:101CC000816080838081806880831092C100089544
:101CD0008093020108958E3008F08E508770209115
:101CE000020190E4299F90011124822B80937C00B3
:101CF00080917A00806480937A0080917A0086FDDA
:101D0000FCCF809178002091790090E0922B08958B
:101D1000833081F028F4813099F08230A1F0089569
:101D20008730A9F08830B9F08430D1F480918000F8
:101D30008F7D03C0809180008F778093800008950D
:101D400084B58F7702C084B58F7D84BD089580915E
:101D5000B0008F7703C08091B0008F7D8093B0007A
:101D60000895CF93DF9390E0FC01E650FF4F24915C
:101D7000FC01E25FFE4F8491882349F190E0880FD7
:101D8000991FFC01EA5CFE4FA591B491845D9E4FC2
:101D9000FC01C591D4919FB7611108C0F8948C9152
:101DA000209582238C93888182230AC0623051F46B
:101DB000F8948C91322F309583238C938881822BD9
:101DC000888304C0F8948C91822B8C939FBFDF9101
:101DD000CF9108950F931F93CF93DF931F92CDB7A9
:101DE000DEB7282F30E0F901EA51FF4F8491F90165
:101DF000E650FF4F1491F901E25FFE4F049100237A
:101E0000C9F0882321F069830E94880E6981E02F40
:101E1000F0E0EE0FFF1FE45DFE4FA591B4919FB778
:101E2000F8948C91611103C01095812301C0812B1E
:101E30008C939FBF0F90DF91CF911F910F910895C9
:101E4000FC01818D228D90E0805C9F4F821B910967
:101E50008F7399270895FC01918D828D981731F029
:101E6000828DE80FF11D858D90E008958FEF9FEF33
:101E70000895FC01918D828D981761F0828DDF01AC
:101E8000A80FB11D5D968C91928D9F5F9F73928F6D
:101E900090E008958FEF9FEF08958DEB90E1892BEF
:101EA00049F080E090E0892B29F00E94BD1081115B
:101EB0000C9400000895FC01848DDF01A80FB11D72
:101EC000A35ABF4F2C91848D90E001968F73992770
:101ED000848FA689B7892C93A089B1898C9180645D
:101EE0008C93938D848D981306C00288F389E02D1E
:101EF00080818F7D80830895CF93DF93EC01888D5F
:101F00008823C9F0EA89FB89808185FD05C0A889FD
:101F1000B9898C9186FD0FC00FB607FCF5CF808183
:101F200085FFF2CFA889B9898C9185FFEDCFCE01CD
:101F30000E945B0FE7CFDF91CF910895CF92DF92A0
:101F4000FF920F931F93CF93DF931F92CDB7DEB70E
:101F50006C0181E0D60158968C9358975B969C91C2
:101F60005B975C968C915C97981307C05096ED91A7
:101F7000FC915197808185FD2EC0F601038D10E004
:101F80000F5F1F4F0F731127F02EF601848DF8128B
:101F900011C00FB607FCF9CFD6015096ED91FC9118
:101FA0005197808185FFF1CFC60169830E945B0F45
:101FB0006981EBCF838DE80FF11DE35AFF4F6083FA
:101FC000D6015B960C935B975296ED91FC915397DB
:101FD000808180620CC0D6015696ED91FC91579796
:101FE00060835096ED91FC9151978081806480834D
:101FF00081E090E00F90DF91CF911F910F91FF90C2
:10200000DF90CF900895BF92CF92DF92EF92FF9230
:10201000CF93DF93EC016A017B01B22EE889F98945
:1020200082E08083411581EE580761057105A1F0BA
:1020300060E079E08DE390E0A70196010E940A1428
:1020400021503109410951095695479537952795F2
:10205000211580E1380798F0E889F989108260E855
:1020600074E88EE190E0A70196010E940A142150C5
:102070003109410951095695479537952795EC85C2
:10208000FD853083EE85FF852083188EEC89FD89E0
:10209000B082EA89FB89808180618083EA89FB893B
:1020A000808188608083EA89FB8980818068808361
:1020B000EA89FB8980818F7D8083DF91CF91FF90BA
:1020C000EF90DF90CF90BF9008951F920F920FB6C0
:1020D0000F9211242F938F939F93EF93FF93E0918F
:1020E0002204F09123048081E0912804F0912904D6
:1020F00082FD12C0908180912B048F5F8F7320919D
:102100002C04821751F0E0912B04F0E0EE5EFB4FBF
:10211000958F80932B0401C08081FF91EF919F9157
:102120008F912F910F900FBE0F901F9018951F92B7
:102130000F920FB60F9211242F933F934F935F93FB
:102140006F937F938F939F93AF93BF93EF93FF937F
:1021500082E194E00E945B0FFF91EF91BF91AF91FC
:102160009F918F917F916F915F914F913F912F91AF
:102170000F900FBE0F901F90189582E194E00E947F
:10218000200F21E0892B09F420E0822F089510927E
:1021900015041092140488EE93E0A0E0B0E0809360
:1021A000160490931704A0931804B093190487E1C0
:1021B00092E0909313048093120485EC90E0909346
:1021C0001F0480931E0484EC90E09093210480937C
:1021D000200480EC90E0909323048093220481EC0F
:1021E00090E0909325048093240482EC90E09093F7
:1021F00027048093260486EC90E090932904809332
:10220000280410922B0410922C0410922D0410928A
:102210002E04089508950E942D0E0E940A110E9416
:102220004205CDE4DFE00E9493052097E1F30E9490
:102230004D0FF9CFCF92DF92EF92FF920F931F9342
:10224000CF93DF936C017A01EB01E60EF71E00E0FD
:1022500010E0CE15DF0561F06991D601ED91FC919A
:102260000190F081E02DC6010995080F191FF1CFEB
:10227000C801DF91CF911F910F91FF90EF90DF90F8
:10228000CF90089508955058BB27AA270ED075C146
:1022900066D130F06BD120F031F49F3F11F41EF481
:1022A0005BC10EF4E095E7FB51C1E92F77D180F3D4
:1022B000BA17620773078407950718F071F49EF543
:1022C0008FC10EF4E0950B2EBA2FA02D0B01B90192
:1022D00090010C01CA01A0011124FF27591B99F09C
:1022E000593F50F4503E68F11A16F040A22F232FA8
:1022F000342F4427585FF3CF469537952795A795F8
:10230000F0405395C9F77EF41F16BA0B620B730B9E
:10231000840BBAF09150A1F0FF0FBB1F661F771F0F
:10232000881FC2F70EC0BA0F621F731F841F48F4C4
:10233000879577956795B795F7959E3F08F0B3CF4A
:102340009395880F08F09927EE0F97958795089534
:10235000D9D008F481E008950CD00FC107D140F026
:10236000FED030F021F45F3F19F0F0C0511139C1B7
:10237000F3C014D198F39923C9F35523B1F3951BF6
:10238000550BBB27AA2762177307840738F09F5F96
:102390005F4F220F331F441FAA1FA9F333D00E2E05
:1023A0003AF0E0E830D091505040E695001CCAF772
:1023B00029D0FE2F27D0660F771F881FBB1F261737
:1023C00037074807AB07B0E809F0BB0B802DBF010A
:1023D000FF2793585F4F2AF09E3F510568F0B6C023
:1023E00000C15F3FECF3983EDCF3869577956795E7
:1023F000B795F7959F5FC9F7880F911D96958795BB
:1024000097F90895E1E0660F771F881FBB1F6217D9
:1024100073078407BA0720F0621B730B840BBA0B97
:10242000EE1F88F7E095089504D06894B111D9C0E3
:102430000895BCD088F09F5790F0B92F9927B751D5
:10244000A0F0D1F0660F771F881F991F1AF0BA9578
:10245000C9F712C0B13081F0C3D0B1E00895C0C057
:10246000672F782F8827B85F39F0B93FCCF386956E
:1024700077956795B395D9F73EF4909580957095CB
:1024800061957F4F8F4F9F4F0895E89409C097FB48
:102490003EF490958095709561957F4F8F4F9F4F3B
:1024A0009923A9F0F92F96E9BB279395F69587957F
:1024B00077956795B795F111F8CFFAF4BB0F11F442
:1024C00060FF1BC06F5F7F4F8F4F9F4F16C08823E9
:1024D00011F096E911C0772321F09EE8872F762F1F
:1024E00005C0662371F096E8862F70E060E02AF060
:1024F0009A95660F771F881FDAF7880F969587954C
:1025000097F90895990F0008550FAA0BE0E8FEEF20
:1025100016161706E807F907C0F012161306E407A7
:10252000F50798F0621B730B840B950B39F40A26A0
:1025300061F0232B242B252B21F408950A2609F47E
:10254000A140A6958FEF811D811D089597F99F6782
:1025500080E870E060E008959FEF80EC089500242B
:102560000A941616170618060906089500240A94F8
:1025700012161306140605060895092E0394000C7E
:1025800011F4882352F0BB0F40F4BF2B11F460FF0D
:1025900004C06F5F7F4F8F4F9F4F089557FD905836
:1025A000440F551F59F05F3F71F04795880F97FB17
:1025B000991F61F09F3F79F08795089512161306D1
:1025C0001406551FF2CF4695F1DF08C01616170600
:1025D0001806991FF1CF8695710561050894089535
:1025E000E894BB2766277727CB0197F908958ADF00
:1025F00008F48FEF08950EF0A6C0AECF6894A6CF72
:10260000D5DFC8F39923D1F3C6F3DF93CF931F939C
:102610000F93FF92C92FDD2788232AF02197660F99
:10262000771F881FDAF720E030E040E85FEB9FE398
:10263000883920F0803E30F021968F7725DEECE857
:10264000F0E003C021DEE9EBF0E08BD08B01BE01AE
:10265000EC01FB2E6F5771097595771F880B990B4D
:1026600016DF28E132E741E35FE316D0AF2D980192
:10267000AE01FF900F911F91CF91DF9116DE7DCFBC
:102680000BD07BCF6CDF28F071DF18F0952309F0B9
:102690005DCF62CF1124A5CF81DFA0F3959FD1F349
:1026A000950F50E0551F629FF001729FBB27F00D00
:1026B000B11D639FAA27F00DB11DAA1F649F662755
:1026C000B00DA11D661F829F2227B00DA11D621FA4
:1026D000739FB00DA11D621F839FA00D611D221F5E
:1026E000749F3327A00D611D231F849F600D211D42
:1026F000822F762F6A2F11249F5750408AF0E1F0E5
:1027000088234AF0EE0FFF1FBB1F661F771F881F2D
:1027100091505040A9F79E3F510570F017CF61CFFF
:102720005F3FECF3983EDCF3869577956795B79518
:10273000F795E7959F5FC1F7FE2B880F911D969542
:10274000879597F908959F3F31F0915020F4879530
:1027500077956795B795880F911D9695879597F909
:102760000895DF93CF931F930F93FF92EF92DF9221
:102770007B018C01689405C0DA2EEF018DDFFE012C
:10278000E894A5912591359145915591AEF3EF01CE
:102790008CDDFE019701A801DA9479F7DF90EF90C4
:1027A000FF900F911F91CF91DF910895991B79E0D0
:1027B00004C0991F961708F0961B881F7A95C9F7D1
:1027C00080950895AA1BBB1B51E107C0AA1FBB1F20
:1027D000A617B70710F0A61BB70B881F991F5A95AD
:1027E000A9F780959095BC01CD01089597FB072E20
:1027F00016F4009407D077FD09D00E94E21307FC7D
:1028000005D03EF4909581959F4F08957095619500
:102810007F4F0895A1E21A2EAA1BBB1BFD010DC01C
:10282000AA1FBB1FEE1FFF1FA217B307E407F50780
:1028300020F0A21BB30BE40BF50B661F771F881F5C
:10284000991F1A9469F760957095809590959B01F2
:10285000AC01BD01CF010895052E97FB1EF4009435
:102860000E94431457FD07D00E940A1407FC03D0AE
:102870004EF40C94431450954095309521953F4F5C
:102880004F4F5F4F089590958095709561957F4F5C
:102890008F4F9F4F0895EE0FFF1F0590F491E02D8D
:1028A00009940E945C14A59F900DB49F900DA49F65
:1028B000800D911D11240895A29FB001B39FC00106
:1028C000A39F700D811D1124911DB29F700D811D5C
:1028D0001124911D0895FB01DC0102C001900D92AD
:0C28E00041505040D8F70895F894FFCF05
:1028EC00010001327C8900EDD968770000005900A5
:1028FC0000000000000000D69FDCA81817AA904327
:10290C007327F6B968EDF4DED409FEE61C1C84DDF1
:10291C00E80B992927D6DF8D210F036418EFEE1EE3
:10292C00F0B7828276941500F37C000000140098B6
:10293C008F00007F6A00000000000000E7B73F3600
:10294C0000000000000000AF669ED0385DD36C2004
:10295C00B9EB5D7C7C77044C80387486EDCBFA57F0
:10296C00CBDC0000001DDF000000000000000000B8
:10297C00000000000000B1F10F86DBD0BC54161330
:10298C001586004E44BD7F9A15159001EA49B5167F
:10299C0053A78AEAF02F000000000000000000009E
:1029AC00000000000000000000000000000000001B
:1029BC00000000000000000000000000000000000B
:1029CC0000000000000000000000000000000000FB
:1029DC00000000000000000000000000CC31AA2C18
:1029EC00532E0000000000300B1A119C0B0F0B82B1
:1029FC000BB40B000000009E0F1A11200F390F2B87
:042A0C000F7C0F002C
:00000001FF
